:020000040800F2
:10000000C00700204D020008031A00086B18000802
:10001000011A000843040008E71D00080000000062
:10002000000000000000000000000000071A0008A7
:100030005104000800000000051A0008091A000811
:1000400067020008670200086702000867020008EC
:1000500067020008670200086702000867020008DC
:1000600067020008670200086702000867020008CC
:1000700067020008670200086702000867020008BC
:1000800067020008670200086702000867020008AC
:1000900045040008670200086702000867020008BC
:1000A000670200086702000867020008670200088C
:1000B000670200086702000867020008670200087C
:1000C000670200086702000867020008670200086C
:1000D000670200086702000867020008670200085C
:1000E000670200086702000867020008670200084C
:1000F000670200086702000867020008670200083C
:10010000670200086702000867020008670200082B
:10011000670200086702000867020008670200081B
:10012000670200086702000867020008670200080B
:1001300067020008670200086702000867020008FB
:1001400067020008670200086702000867020008EB
:1001500067020008670200086702000867020008DB
:1001600067020008670200086702000867020008CB
:10017000670200086702000867020008000000002C
:1001800067020008670200086702000867020008AB
:10019000670200086702000867020008670200089B
:1001A00067020008670200086702000800F002F812
:1001B00000F03CF80AA090E8000C82448344AAF1C5
:1001C0000107DA4501D100F031F8AFF2090EBAE8C3
:1001D0000F0013F0010F18BFFB1A43F0010318477B
:1001E000F41D0000141E0000103A24BF78C878C126
:1001F000FAD8520724BF30C830C144BF04680C602D
:10020000704700000023002400250026103A28BF74
:1002100078C1FBD8520728BF30C148BF0B60704778
:100220001FB501F0C9FE1FBD10B510BD00F0CFF81D
:100230001146FFF7F5FF01F043FE00F0EDF803B4BF
:10024000FFF7F2FF03BC00F0F5F800000948804713
:1002500009480047FEE7FEE7FEE7FEE7FEE7FEE7A8
:10026000FEE7FEE7FEE7FEE704480549054A064BC0
:1002700070470000AD1A0008AD010008C001002061
:10028000C0070020C0030020C003002053EA020C76
:1002900000F069802DE9F04B4FF00006002B1FBFE6
:1002A000B3FA83F503FA05F424FA05F65E4012BFAB
:1002B0001643B2FA82F502FA05F4C5F120051EBF15
:1002C00022FA05FC44EA0C04203556EA044C4FEAB5
:1002D000144418BF641C4FF000084FF0000990420E
:1002E00071EB030C39D3002919BFB1FA81F701FA78
:1002F00007F6B0FA80F700FA07F6C7F120071EBF2D
:1003000020FA07FC46EA0C062037B6FBF4FCA7EB04
:100310000507103F07F01F0BCBF120060CFA0BFB73
:100320002CFA06F644BFB3460026202FA4BF5E4633
:100330004FF0000B5BEA060C08BF4FF0010B19EB06
:100340000B09ABFB027C48EB0608C01B06FB02CC8A
:100350000BFB03CC71EB0C01C1E70B460246414697
:100360004846BDE8F08B13B54FF000004FF0000198
:10037000AFF30080BDE81C4070474FF0000200B5AD
:10038000134694469646203922BFA0E80C50A0E8B8
:100390000C50B1F12001BFF4F7AF090728BFA0E866
:1003A0000C5048BF0CC05DF804EB890028BF40F832
:1003B000042B08BF704748BF20F8022B11F0804F74
:1003C00018BF00F8012B704770477047704775469B
:1003D00000F02CF8AE4605006946534620F00700B1
:1003E000854618B020B5FFF73FFFBDE820404FF02D
:1003F00000064FF000074FF000084FF0000B21F00F
:100400000701AC46ACE8C009ACE8C009ACE8C009DB
:10041000ACE8C0098D46704710B50446AFF30080C4
:100420002046BDE81040FFF70ABF000000487047B3
:100430006001002001491820ABBEFEE72600020043
:100440007047FEE7014800F098B900003400002032
:10045000704790F82020012A07D0022A05D0416A6F
:1004600041F48021416201207047006842690A43DB
:10047000426100207047F0B590F820500468A468ED
:10048000012D05D0022D03D0416A41F4802157E0AF
:1004900014F0406F01D1E5004FD5C4F3016401258C
:1004A000A5401D608D684FF4C0739DB1CE68354383
:1004B0004E6845EAC605066803EB0417F5514FF48C
:1004C000C275076805EB04150E697E51097D012987
:1004D00005D009E00E88CD6845EA4655EBE701688E
:1004E0004E5946F480764E511179D579567941EAC4
:1004F000056195792D0445EA062529434FF4C67612
:10050000056806EB0416A9511178D57841EA056112
:10051000957852782D0445EA022211434FF4C475B0
:10052000026805EB04155151006803EB04114258B1
:1005300042F0010242500020F0BD416A41F4001136
:1005400041620120F0BD000010B590F82020012A82
:1005500007D0022A05D0416A41F48021416201207E
:1005600010BD3B48D0F8002242F00102C0F8002242
:10057000D0F8002222F47C52C0F80022D0F80022E9
:100580004B6A42EA0322C0F800220A7D02F01F03F0
:1005900001229A40D0F81C329343C0F81C32CB6938
:1005A000B3B9D0F80C329343C0F80C328C894B6845
:1005B00064F31F434C6900EBC404C4F840320C8957
:1005C0000B6864F31F434C6900EBC404C4F8443265
:1005D000CB69012B16D1D0F80C321343C0F80C3282
:1005E0000C884B6864F31F434C6900EBC404C4F8E7
:1005F00040320C89CB6864F31F434C6900EBC404A0
:10060000C4F844328B69002BD0F804320ED0134367
:10061000C0F804320B69002BD0F8143208D0134311
:10062000C0F81432096A012904D008E09343EFE7C7
:100630009343F5E7D0F81C121143C0F81C12D0F810
:10064000001221F00101C0F80012002010BD0000CE
:10065000006400407047406A704770B590F82040D1
:10066000012C05D0022C03D0416A41F4802128E0FE
:10067000046809B32469A40720D04FF4D87405682E
:1006800004EB01142D5915F00405956005682D59EA
:100690001AD0ED08556005682C5904F00204D460A6
:1006A0004FF4DA74056804EB01142E5906F00F06B6
:1006B000082E0CD308250DE0E468DCE7416A41F41C
:1006C00000114162012070BD6D0D1560E3E72D59E9
:1006D00005F00F05156105682D59C5F307259561CE
:1006E00005682C59240C54614FF4DC72046802EB49
:1006F0000112A4581C700468A458240A5C70046891
:10070000A458240C9C700468A258120EDA704FF49E
:10071000DE72046802EB0112A4581C710468A4582C
:10072000240A5C710468A458240C9C710468A258C3
:10073000120EDA71006829B1016941F020010161EE
:10074000002070BDC16841F02001C160F8E7024699
:10075000002092F82010012901D002290CD1116843
:100760008A68520100D501208A68120100D5401C18
:100770008968C90000D5401C70472DE9F05F054627
:10078000006800244669D0F804908768D0F80CB05F
:10079000D0F810A0D0F81880F10748D0F90714D08D
:1007A00001218160B80703D5284600F0F0F90CE07C
:1007B000780702D54FF4006407E0380702D54FF4FC
:1007C000805402E0284600F0E1F9F80516D52968C2
:1007D0004FF480708860B80503D5284600F0D9F939
:1007E0000CE0780502D544F4005407E0380502D542
:1007F00044F4804402E0284600F0CAF9F80316D514
:1008000029684FF480308860B80303D5284600F08B
:10081000C2F90CE0780302D544F4004407E0380341
:1008200002D544F4803402E0284600F0B3F93007E2
:1008300007D55FEACB6004D52968102044F4007422
:10084000C86070074FF0080707D55FEA0B7004D542
:100850002868C760284600F051F9B00706D5286817
:10086000C068800702D0284600F04AF9700607D514
:100870005FEACA6004D52968102044F480640861E6
:10088000B00607D55FEA0A7004D5286807612846D4
:1008900000F04CF9F00606D528680069800702D000
:1008A000284600F044F9B00308D55FEAC96005D5D1
:1008B000296810204860284600F03AF9F00307D56F
:1008C0005FEA097004D528684760284600F064F99B
:1008D000300446D55FEA497040D5F00504D55FEA9B
:1008E000C87001D044F00104B00504D55FEA8870F7
:1008F00001D544F00204700504D55FEA487001D5C3
:1009000044F00404300529D518F0700F26D008F003
:100910007000402815D006DC102809D020280AD005
:10092000302816D10AE050280ED0602811D10EE0F0
:1009300044F008040DE044F010040AE044F0200400
:1009400007E044F0400404E044F0800401E044F493
:1009500080742868816921F0700181612968042010
:100960004860002C05D0686A204368622846FFF77B
:1009700071FEBDE8F09F70B5040003D094F820002C
:1009800010B104E0012070BD204600F081F820681D
:10099000016841F00101016000F032FA05460526C8
:1009A00004E000F02DFA401B0A2811D820684068A6
:1009B000C007F6D02068016821F00201016000F054
:1009C0001FFA05460BE000F01BFA401B0A2806D967
:1009D000606A40F40030606284F82060D2E72068EA
:1009E00040688007EFD4207E0128206801683DD050
:1009F00021F080010160607E01282068016838D004
:100A000021F040010160A07E01282068016833D0F8
:100A100021F020010160E07E0128206801682ED0CD
:100A200041F010010160207F01282068016829D071
:100A300021F008010160607F01282068016824D04E
:100A400021F004010160D4E902010843D4E9041251
:100A5000114308436168491E08432168C8610020AA
:100A60006062012084F82000002070BD41F0800108
:100A7000C0E741F04001C5E741F02001CAE721F09D
:100A80001001CFE741F00801D4E741F00401D9E7B4
:100A900010B586B0044614216846FFF76EFC144971
:100AA0002068884221D113480021026842F0007278
:100AB0000260006800F0007005900E48103802686F
:100AC00042F001020260006800F0010005904FF45E
:100AD000C05000900220CDE90101032003900920BD
:100AE00004906946044800F06BF806B010BD0000A1
:100AF000006400404038024000000240704700009F
:100B000010B5064A0168914207D1054B054A0021FC
:100B1000FFF7A3FD04490120087010BD00640040E8
:100B20002C00002044010020140000207047704772
:100B30007047000070B5044690F82000012804D0EA
:100B4000606A40F40020606218E0022084F820000F
:100B50002068016821F00101016000F051F90546AB
:100B60000EE000BF00F04CF9401B0A2808D9606A6B
:100B700040F400306062052084F82000012070BD40
:100B800020684068C007EDD1606270BD7047704753
:100B900070477047704770477047000070B5044653
:100BA00000F02EF90546601C02D004480078044489
:100BB00000F026F9401BA042FAD370BD04000020CB
:100BC0002DE9F84FDFF8F8A10022012403254FF0AA
:100BD0000F090AF1040BAAF1040E00BF0B6804FA16
:100BE00002F63340B34270D10F7907F00307012FAB
:100BF00001D0022F16D187684FEA420805FA08FC97
:100C000027EA0C07D1F80CC00CFA08FC4CEA070CD8
:100C1000C0F808C04768B7430E79C6F3001696407F
:100C20003E4346600E79F643B6070AD0C7684FEADE
:100C3000420C05FA0CF6B7438E6806FA0CF63E43F2
:100C4000C6600E7906F00306022E10D1D60800EB1E
:100C50008608D8F8206057074FEAD76C09FA0CF7D6
:100C6000BE430F6907FA0CF73743C8F820700668CF
:100C70004FEA420C05FA0CF7BE430F7907F0030761
:100C800007FA0CF7374307604E6816F4403F1CD054
:100C90004C4E376847F480473760366822F00307C8
:100CA00006F480460096484E07EB060CDCF8086810
:100CB00097073F0F09FA07F826EA0806DFF80C81C4
:100CC000404503D14FF0000841E072E0DFF80081B9
:100CD000404502D14FF0010839E0DFF8F880404587
:100CE00002D14FF0020832E0DFF8EC80404502D13B
:100CF0004FF003082BE0DFF8E480404502D14FF0CD
:100D0000040824E0DFF8D880404502D14FF0050800
:100D10001DE0DFF8D080404502D14FF0060816E014
:100D2000DFF8C480404502D14FF007080FE0DFF83C
:100D3000BC80404502D14FF0080808E0DFF8B080E1
:100D4000404502D14FF0090801E04FF00A0808FAC7
:100D500007F848EA0608CCF80888DAF80060574631
:100D6000D1F804C09E435FEACC2C00D51E433E6000
:100D7000DBF800605F46D1F804C09E435FEA8C2C2C
:100D800000D51E433E60DEF800607746D1F804C00F
:100D90009E435FEA8C3C00D51E433E60084F083FEF
:100DA0003E68D1F804C09E435FEACC3C00D51E43A8
:100DB0003E60521C102AFFF411AFBDE8F88F00000E
:100DC000083C01404438024000300140000002402D
:100DD0000004024000080240000C024000100240E3
:100DE0000014024000180240001C02400020024093
:100DF000002402400AB1816170470904FBE700004A
:100E000001488068704700000400002002488168A3
:100E10000278114481607047040000200B4810B52F
:100E2000016841F400710160016841F48061016072
:100E3000016841F480710160032000F061F80F2027
:100E400000F006F800F024F8002010BD003C02403D
:100E500070B50D4D04464FF47A712878B1FBF0F06F
:100E60000A490968B1FBF0F000F016FB48B9102CF4
:100E700007D200222146501E00F022F800206C60AC
:100E800070BD012070BD0000040000201000002093
:100E90000A4808B5016841F480410160006800F427
:100EA000804000900548001F016841F080510160BA
:100EB000006800F08050009008BD000044380240F7
:100EC000F0B40E4B1B680C46C3F30223C3F10705B5
:100ED000042D00D90425191D072901D2002300E0A3
:100EE000DB1E012606FA05F1491E214099409E406D
:100EF000761E16403143F0BC00F076BF0CED00E0EA
:100F0000064900F0070208684FF6FF03184040EA60
:100F10000220034A10430860704700000CED00E017
:100F20000000FA052DE9F8431748016841F08051A7
:100F300001600068154F00F08050012600903E646B
:100F4000FFF75EFF05464FF47A78114C05E000BFCD
:100F5000FFF756FF401B40450DD86068C003F7D52A
:100F60007E64FFF74DFF0546464607E0FFF748FF62
:100F7000401BB04202D90320BDE8F88360688003BB
:100F8000F4D50020F8E700004038024000000E428F
:100F9000007000402DE9F0470E46050065D0DFF8EF
:100FA0001481D8F80000F7B200F00F00B04207D269
:100FB00088F80070D8F8000000F00F00B04254D15B
:100FC00028683D4C810712D5400703D5206840F4BE
:100FD000E05020602878000703D5206840F4604086
:100FE00020602068A96820F0F0000843206028787D
:100FF000C0072DD0304968680839012812D002286E
:1010000013D0032811D00968890700292DDA216837
:1010100021F0030101432160FFF7F2FE814641F216
:10102000883A0EE009688903EFE709688901ECE76F
:10103000FFF7E6FEA0EB0901514502D90320BDE808
:10104000F0872068696800F00C00B0EB810FEFD1E9
:10105000D8F80010404601F00F01B14207D90770DF
:10106000006800F00F00B04201D00120E7E72878C7
:10107000400705D52068E96820F4E0500843206067
:101080002878000706D52068296920F4604040EAE6
:10109000C100206000F018F82168084AC1F303116C
:1010A000515CC8400649086006480068FFF7D0FE5A
:1010B0000020C4E7003C024008380240C21F00087C
:1010C0001000002008000020154810B5006810F03E
:1010D0000C02144813D01449042A0FD0082A0ED148
:1010E0000F4C241F2268236802F03F025B0207D5E1
:1010F0002068C0F38810A0FB010106E0084610BD7F
:101100002168C1F38811A1FB00010023FFF7BEF89D
:101110002168C1F30141491C4900B0FBF1F010BD49
:10112000083802400024F40040787D012DE9F84F92
:1011300004006ED02078DFF84C93C007A9F10405B5
:101140004AD009F104000168C1F38101012908D0E6
:101150000068C0F3810002280AD1D9F800004002DB
:1011600006D52868800337D560680028E1D033E0D1
:101170006068B0F5803F10D0B0F5A02F286810D07F
:1011800020F480302860286820F48020286060687F
:10119000A8B1FFF735FE06460DE0286840F4803020
:1011A000F4E740F480202860F7E700BFFFF728FE4F
:1011B000801B642873D828688003F7D50CE0FFF7FC
:1011C0001FFE064605E000BFFFF71AFE801B6428DD
:1011D000F0D828688003F7D42078DFF8AC82800745
:1011E0004FF0000A3ED5A748001D016811F00C0F12
:1011F00008D00068C0F3810002280BD1D9F80000A4
:10120000400207D42868800716D5E068012800D17D
:1012100012E033E1E068B8B10120C8F80000FFF740
:10122000EFFD064605E000BFFFF7EAFD801B022840
:10123000C0D828688007F7D52868216920F0F80011
:1012400040EAC10028600DE0C8F800A0FFF7D8FD13
:10125000064604E0FFF7D4FD801B02281FD828684B
:101260008007F7D42078000722D5864F8748616928
:10127000703771B101210160FFF7C2FD064604E03D
:10128000FFF7BEFD801B022809D838688007F7D514
:101290000EE0C0F800A0FFF7B3FD064605E082E0CF
:1012A000FFF7AEFD801B02287DD838688007F7D491
:1012B0002078400768D5DFF8CCB100270BF13C0B54
:1012C000DBF80000C0000BD4DBF8001041F08051C7
:1012D000CBF80010DBF80000012700F080500090F0
:1012E0006B4E3068C00510D4306840F480703060B8
:1012F000FFF786FD009005E0FFF782FD0099401A98
:10130000022850D83068C005F6D55E4EA0686C360D
:1013100001280FD00528306810D020F0010030607F
:10132000306820F004003060A068B8B1FFF768FDB5
:1013300000900FE0306840F00100F4E740F0040056
:101340003060F7E7FFF75CFD0099411A41F2883001
:10135000814266D830688007F4D50EE0FFF750FD73
:10136000009007E0FFF74CFD0099411A41F28830E8
:10137000814256D830688007F4D42FB1DBF80010D2
:1013800021F08051CBF80010A069C8B33D49091D78
:101390000968C1F3810102294AD00228504607D0CA
:1013A000C8F8600000E03CE0FFF72AFD04463BE09F
:1013B0004746C8F86000FFF723FD064605E000BF7A
:1013C000FFF71EFD801B02282BD828688001F7D468
:1013D000D4E907010843A16A2E4A490802EB0141FA
:1013E000626A41EA8211084394F82C1040EA0161D4
:1013F000C9F8001001203866FFF702FD044606E038
:101400003EE000BFFFF7FCFC001B022809D828685B
:101410008001F7D534E000BFFFF7F2FC001B022883
:1014200002D90320BDE8F88F28688001F4D427E0B2
:101430000128F7D0D9F80000E26900F48001914258
:101440001CD1226A00F03F01914217D147F6C071CA
:10145000626A0140B1EB821F10D1A26A4FF0FF33E4
:1014600000F4403103EB5202B1EB024F06D194F885
:101470002C1000F07060B0EB016F01D00120D1E7BB
:101480000020CFE70438024000004742800E474268
:10149000007000400000FFFF10B5401EB0F1807FDB
:1014A00001D3012010BD4FF0E02460610F216017CF
:1014B00000F09AFC0020A06107202061002010BDF0
:1014C000704770477047000070B590F83C20012AC3
:1014D00032D0012480F83C40022280F83D2003688D
:1014E0005A689D6822F070060A6832435A60134BAE
:1014F00002689A4214D0B2F1804F11D0104B9A4238
:101500000ED0104B9A420BD00F4B9A4208D00F4B83
:101510009A4205D00E4B9A4202D00E4B9A4204D109
:10152000496825F080031943916080F83D4000210F
:1015300080F83C10084670BD022070BD00000140DC
:101540000004004000080040000C0040000401407E
:10155000004001400018004010B5040003D094F88A
:101560003D0010B10EE0012010BD002084F83C00C9
:10157000204600F0DFFBA06C08B91148A0640146CA
:1015800020468847022084F83D00211D206800F095
:1015900095FA012084F8460084F83E0084F83F0064
:1015A00084F8400084F8410084F8420084F8430045
:1015B00084F8440084F8450084F83D00002010BD04
:1015C000C515000808B500680649884208D10648D4
:1015D000016841F002010160006800F00200009023
:1015E00008BD0000000400404038024070B50446C9
:1015F00090F83C000025012817D0012684F83C60B3
:10160000022084F83D002068826822F0770222F4EC
:101610007F4282600868502838D00DDC20284FD0E7
:1016200005DC90B3102811D14AE0022070BD3028AB
:1016300046D040280AD13BE060282FD070280DD03A
:10164000B0F5805F03D0B0F5005F12D0012584F8BB
:101650003D60002084F83C00284670BDCB68D1E98D
:101660000121206800F092FA2068816841F077013A
:1016700009E0CB68D1E90121206800F087FA2068F1
:10168000816841F480418160E1E719E0CA684968F6
:10169000206800F085FB5021206806E0CA68496890
:1016A000206800F08EFB6021206800F079FACEE718
:1016B000CA684968206800F073FB40212068F4E79D
:1016C000226801461046F0E77047704770470000F7
:1016D00010B586B0044614216846FEF74EFE0D494B
:1016E0002068884214D10C480021026842F00102AF
:1016F0000260006800F001000590C0200090022008
:10170000CDE90101CDE9031069460448FFF758FA15
:1017100006B010BD00040040303802400000024016
:10172000704770B5044690F83C0000260D4601282D
:101730000FD0012084F83C006AB1042A1DD0082A89
:101740002FD00C2A3FD00126002084F83C003046E0
:1017500070BD022070BD206800F02AFA20688169FF
:1017600041F0080181612068816921F004018161F3
:10177000206881692A69114311E0206800F048FA65
:101780002068816941F4006181612068816921F4E8
:1017900080618161206881692A6941EA0221816151
:1017A000D2E7206800F06AFA2068C16941F00801B8
:1017B000C1612068C16921F00401C1612068C1696B
:1017C0002A69114311E0206800F08CFA2068C16991
:1017D00041F40061C1612068C16921F48061C16187
:1017E0002068C1692A6941EA0221C161ACE70000B1
:1017F00010B5040003D094F83D0010B10EE00120B4
:1018000010BD002084F83C00204600F093FA206EC2
:1018100008B911482066014620468847022084F80E
:101820003D00211D206800F049F9012084F84600A0
:1018300084F83E0084F83F0084F8400084F84100BA
:1018400084F8420084F8430084F8440084F845009A
:1018500084F83D00002010BD5D18000870477047F7
:1018600070477047704770477047FEE70F4810B5E4
:101870000D4901600621416000214FF43022816052
:10188000C0E903124FF480124261017601224276D0
:101890008176C27601774177FFF76DF8002801D095
:1018A00072B6FEE710BD0000006400403400002066
:1018B00070B586B014216846FEF75FFD224800240B
:1018C000016841F004010160016801F00401059123
:1018D000016841F080010160016801F0800105911B
:1018E000016841F001010160016801F00101059109
:1018F000016841F0020101600068144E00F002002E
:1019000040F2C3150590002229463046FFF772FACF
:101910004FF40050CDE9000469460D480294FFF7EA
:101920004FF90920CDE9000469460A480294FFF7FF
:1019300047F901200095CDE901046946304603943A
:10194000FFF73EF906B070BD303802400004024097
:1019500000080240001C024010B58EB0002407941D
:10196000089409940A940B941C2168460C94FEF781
:1019700004FD22482049C0E900144FF6FF71C0E978
:10198000024104618461FFF7E7FD08B172B6FEE72A
:101990004FF48050079007A91848FFF727FE08B1B9
:1019A00072B6FEE71548FFF723FF08B172B6FEE7EF
:1019B0000B940BA911480C94FFF786FD08B172B681
:1019C000FEE76020CDE900040294002269460B483E
:1019D0000494FFF7A6FE08B172B6FEE7042269463A
:1019E0000648FFF79EFE08B172B6FEE70348FFF710
:1019F0006FFE0EB010BD0000000400405C0000202F
:101A0000FEE7FEE770477047FFF700BA30B593B0C6
:101A100030216846FEF7B1FC14210CA8FEF7ADFC9E
:101A200020480025016841F080510160006800F005
:101A3000805011901C48016841F4404101600068E9
:101A4000022400F4404011900120039010200490E3
:101A5000009406940820CDE90750B420CDE909048C
:101A600004200B906846FFF761FB08B172B6FEE7F1
:101A7000FFF758FA08B172B6FEE70CA90F2081E80B
:101A800031004FF4A0500F904FF48050109005217A
:101A90000CA8FFF77FFA002801D072B6FEE713B05A
:101AA00030BD00004038024000700040024801682C
:101AB00041F470010160704788ED00E0F0B5026804
:101AC000274B284D284E294F294C4FF0804C9842E7
:101AD00009D0604507D0A84205D0B04203D0B84233
:101AE00001D0A04204D122F0700E4A6842EA0E02F0
:101AF00098421BD0604519D0A84217D0B04215D0EB
:101B0000B84213D0A04211D01A4DA8420ED01A4D9F
:101B1000A8420BD0194DA84208D0194DA84205D0B3
:101B2000184DA84202D0184DA84203D122F44075A6
:101B3000CA682A434D6922F080022A438D68C56233
:101B40000D688562984201D0A04201D10969016304
:101B5000016841F004010160012141610260F0BDB2
:101B6000000001400004004000080040000C00405C
:101B70000004014000400140004401400048014091
:101B800000180040001C00400020004010B5846890
:101B900042EA032224F47F440A432243826010BDB8
:101BA000826822F070020A4342F0070181607047A8
:101BB000F0B5036A026A22F0010202624268846997
:101BC000124E24F073050C682C4323F002058B6839
:101BD0002B430D4DA84201D0B04205D123F0080798
:101BE000CB683B4323F00403A84201D0B04205D1A7
:101BF0004D6922F4407215438A692A434260846128
:101C0000496841630362F0BD0000014000040140E7
:101C1000F0B5026A036A23F0100303624368846923
:101C20000D6824F4E64444EA05248D6822F020027D
:101C300042EA05120F4D104EA84201D0B04206D123
:101C4000CF6822F0800242EA071222F04002A84246
:101C500001D0B04207D14D6923F4406343EA8503C4
:101C60008D6943EA85034360846149688163026248
:101C7000F0BD00000000014000040140F0B5026A20
:101C8000036A23F4807303624368C46922F4007218
:101C900024F073050C68124E2C438D6842EA05222D
:101CA0000E4DA84201D0B04206D1CF6822F40062A6
:101CB00042EA072222F48062A84201D0B04207D152
:101CC0004D6923F4405343EA05138D6943EA051334
:101CD0004360C4614968C1630262F0BD0000014015
:101CE0000004014030B5046A026A22F480520262A4
:101CF0004268C3690D6823F4E64343EA05238D680F
:101D000024F4005444EA0534084DA84202D0084D9A
:101D1000A84204D14D6922F4804242EA8512426011
:101D2000C36149680164046230BD000000000140E5
:101D3000000401400D4940F8801F0D4941600D49E4
:101D400081600D49C1600D4901610D4941610D4935
:101D500081610D49C1610D4901620D4941620D4921
:101D600081620D49C1620D49016370476318000823
:101D7000651800086718000869180008CB160008E5
:101D8000CD160008211700085F1800086118000828
:101D9000C9160008C3140008C5140008C1140008BF
:101DA00010B5036A046A24F001040462846924F013
:101DB000F00444EA021423F00A020A438461026236
:101DC00010BD10B5036A046A24F01004046284692B
:101DD00023F0A00324F4704444EA023243EA0111E0
:101DE0008261016210BDFEE70907090E002804DBCD
:101DF00000F1E02080F80014704700F00F0000F1BF
:101E0000E02080F8141D704710B5002304E0CC5C7E
:101E10005B1C204480B2DBB29342F8D3C0B210BD49
:101E200000B58BB000200121CDE90601089100909A
:101E30000190029003900590049069460548FEF7D2
:101E400083FB0448FEF776FE02210248FEF701FB01
:101E50000BB000BD3400002030B5174887B00168D2
:101E600041F002010160016801F002010591016881
:101E700041F0020101600068012400F002000590B9
:101E80000220CDE90004CDE902400C4D6946284608
:101E9000FEF796FE694628460094FEF791FE012261
:101EA00002212846FEF7A6FF012211462846FEF72A
:101EB000A1FF07B030BD00003038024000040240EE
:101EC000FEF7ACFFFFF7A2FDFFF7F2FCFFF7CEFC39
:101ED000FFF742FDFFF7C0FFFFF7A2FF0121084611
:101EE00000F00EF8054C022301206288217800F0F2
:101EF0002FF86420FEF752FE0223F5E700000020D1
:101F00007CB50D46044618210F48FEF736FA0E4AF6
:101F10000020694690601460D06003201061F320B7
:101F20008DF800008DF8015002222046FFF76CFF6B
:101F30008DF8020001AB6A4603490448FEF79BFA9C
:101F40003220FEF72BFE7CBD100100203400002063
:101F500038B5164C0025A560E56020600525256193
:101F6000134CF6252570C2F3032545EAC1116170B3
:101F7000A270E37004222146FFF746FF20716B46F2
:101F800022460A490B48FEF776FA0A48FEF7DFFBBD
:101F90000848FEF760FB0748006880696B462246E8
:101FA00002490448FEF767FA38BD0000100100201E
:101FB0001C000020340000204FF04070E1EE100AB9
:101FC0007047000000000000000001020304060743
:101FD00008090000F41F0008000000203400000081
:101FE000E801000828200008340000208C070000C9
:101FF000040200080000640001000000100000005E
:10200000000000000024F4000000000000000000B8
:1020100000000000000000000000000000000000C0
:082020000000000000000000B8
:04000005080001AD41
:00000001FF
