:020000040800F2
:10000000F00600204D0200085B110008A91000084E
:1000100059110008430400081512000800000000F0
:100020000000000000000000000000005F11000858
:1000300045040008000000005D110008611100087F
:1000400067020008670200086702000867020008EC
:1000500067020008670200086702000867020008DC
:1000600067020008670200086702000867020008CC
:1000700067020008670200086702000867020008BC
:1000800067020008670200086702000867020008AC
:10009000670200086702000867020008670200089C
:1000A000670200086702000867020008670200088C
:1000B000670200086702000867020008670200087C
:1000C000670200086702000867020008670200086C
:1000D000670200086702000867020008670200085C
:1000E000670200086702000867020008670200084C
:1000F000670200086702000867020008670200083C
:10010000670200086702000867020008670200082B
:10011000670200086702000867020008670200081B
:10012000670200086702000867020008670200080B
:1001300067020008670200086702000867020008FB
:1001400067020008670200086702000867020008EB
:1001500067020008670200086702000867020008DB
:1001600067020008670200086702000867020008CB
:10017000670200086702000867020008000000002C
:1001800067020008670200086702000867020008AB
:10019000670200086702000867020008670200089B
:1001A00067020008670200086702000800F002F812
:1001B00000F03CF80AA090E8000C82448344AAF1C5
:1001C0000107DA4501D100F031F8AFF2090EBAE8C3
:1001D0000F0013F0010F18BFFB1A43F0010318477B
:1001E000C4110000E4110000103A24BF78C878C19F
:1001F000FAD8520724BF30C830C144BF04680C602D
:10020000704700000023002400250026103A28BF74
:1002100078C1FBD8520728BF30C148BF0B60704778
:100220001FB501F0B1F81FBD10B510BD00F0CFF83B
:100230001146FFF7F5FF01F011F800F0EDF803B4F7
:10024000FFF7F2FF03BC00F0F5F800000948804713
:1002500009480047FEE7FEE7FEE7FEE7FEE7FEE7A8
:10026000FEE7FEE7FEE7FEE704480549054A064BC0
:100270007047000005120008AD010008F0000020E2
:10028000F0060020F0020020F002002053EA020CE9
:1002900000F069802DE9F04B4FF00006002B1FBFE6
:1002A000B3FA83F503FA05F424FA05F65E4012BFAB
:1002B0001643B2FA82F502FA05F4C5F120051EBF15
:1002C00022FA05FC44EA0C04203556EA044C4FEAB5
:1002D000144418BF641C4FF000084FF0000990420E
:1002E00071EB030C39D3002919BFB1FA81F701FA78
:1002F00007F6B0FA80F700FA07F6C7F120071EBF2D
:1003000020FA07FC46EA0C062037B6FBF4FCA7EB04
:100310000507103F07F01F0BCBF120060CFA0BFB73
:100320002CFA06F644BFB3460026202FA4BF5E4633
:100330004FF0000B5BEA060C08BF4FF0010B19EB06
:100340000B09ABFB027C48EB0608C01B06FB02CC8A
:100350000BFB03CC71EB0C01C1E70B460246414697
:100360004846BDE8F08B13B54FF000004FF0000198
:10037000AFF30080BDE81C4070474FF0000200B5AD
:10038000134694469646203922BFA0E80C50A0E8B8
:100390000C50B1F12001BFF4F7AF090728BFA0E866
:1003A0000C5048BF0CC05DF804EB890028BF40F832
:1003B000042B08BF704748BF20F8022B11F0804F74
:1003C00018BF00F8012B704770477047704775469B
:1003D00000F02CF8AE4605006946534620F00700B1
:1003E000854618B020B5FFF73FFFBDE820404FF02D
:1003F00000064FF000074FF000084FF0000B21F00F
:100400000701AC46ACE8C009ACE8C009ACE8C009DB
:10041000ACE8C0098D46704710B50446AFF30080C4
:100420002046BDE81040FFF70ABF000000487047B3
:100430009000002001491820ABBEFEE72600020014
:100440007047FEE77047F0B590F820500468A46844
:10045000012D05D0022D03D0416A41F4802157E0DF
:1004600014F0406F01D1E5004FD5C4F301640125BC
:10047000A5401D608D684FF4C0739DB1CE683543B3
:100480004E6845EAC605066803EB0417F5514FF4BC
:10049000C275076805EB04150E697E51097D0129B7
:1004A00005D009E00E88CD6845EA4655EBE70168BE
:1004B0004E5946F480764E511179D579567941EAF4
:1004C000056195792D0445EA062529434FF4C67642
:1004D000056806EB0416A9511178D57841EA056143
:1004E000957852782D0445EA022211434FF4C475E1
:1004F000026805EB04155151006803EB04114258E2
:1005000042F0010242500020F0BD416A41F4001166
:1005100041620120F0BD70B590F82040012C05D05B
:10052000022C03D0416A41F4802128E0046809B319
:100530002469A40720D04FF4D874056804EB011493
:100540002D5915F00405956005682D591AD0ED0850
:10055000556005682C5904F00204D4604FF4DA7435
:10056000056804EB01142E5906F00F06082E0CD373
:1005700008250DE0E468DCE7416A41F400114162BE
:10058000012070BD6D0D1560E3E72D5905F00F05D5
:10059000156105682D59C5F30725956105682C5926
:1005A000240C54614FF4DC72046802EB0112A4586D
:1005B0001C700468A458240A5C700468A458240CB5
:1005C0009C700468A258120EDA704FF4DE72046850
:1005D00002EB0112A4581C710468A458240A5C712F
:1005E0000468A458240C9C710468A258120EDA7195
:1005F000006829B1016941F020010161002070BD4E
:10060000C16841F02001C160F8E770B5040003D073
:1006100094F8200010B104E0012070BD204600F0E5
:1006200081F82068016841F00101016000F0DCF907
:100630000546052604E000F0D7F9401B0A2811D82A
:1006400020684068C007F6D02068016821F00201E8
:10065000016000F0C9F905460BE000F0C5F9401B48
:100660000A2806D9606A40F40030606284F820608D
:10067000D2E7206840688007EFD4207E01282068F8
:1006800001683DD021F080010160607E0128206872
:10069000016838D021F040010160A07E0128206867
:1006A000016833D021F020010160E07E012820683C
:1006B00001682ED041F010010160207F01282068E0
:1006C000016829D021F008010160607F01282068BD
:1006D000016824D021F004010160D4E9020108433B
:1006E000D4E90412114308436168491E0843216894
:1006F000C86100206062012084F82000002070BDE5
:1007000041F08001C0E741F04001C5E741F0200120
:10071000CAE721F01001CFE741F00801D4E741F02A
:100720000401D9E710B586B0044614216846FFF7E6
:1007300024FE14492068884221D113480021026810
:1007400042F000720260006800F0007005900E48F0
:100750001038026842F001020260006800F00100F7
:1007600005904FF4C05000900220CDE90101032014
:100770000390092004906946044800F01BF806B075
:1007800010BD0000006400404038024000000240FC
:1007900070B5044600F028F90546601C02D00448F4
:1007A0000078044400F020F9401BA042FAD370BD49
:1007B0000C0000202DE9F84FDFF8F8A100220124F9
:1007C00003254FF00F090AF1040BAAF1040E00BF34
:1007D0000B6804FA02F63340B34270D10F7907F088
:1007E0000307012F01D0022F16D187684FEA420874
:1007F00005FA08FC27EA0C07D1F80CC00CFA08FC33
:100800004CEA070CC0F808C04768B7430E79C6F336
:10081000001696403E4346600E79F643B6070AD06E
:10082000C7684FEA420C05FA0CF6B7438E6806FA21
:100830000CF63E43C6600E7906F00306022E10D178
:10084000D60800EB8608D8F8206057074FEAD76C27
:1008500009FA0CF7BE430F6907FA0CF73743C8F8DB
:10086000207006684FEA420C05FA0CF7BE430F7978
:1008700007F0030707FA0CF7374307604E6816F4D2
:10088000403F1CD04C4E376847F48047376036688D
:1008900022F0030706F480460096484E07EB060C4C
:1008A000DCF8086897073F0F09FA07F826EA0806F8
:1008B000DFF80C81404503D14FF0000841E072E0C1
:1008C000DFF80081404502D14FF0010839E0DFF840
:1008D000F880404502D14FF0020832E0DFF8EC80AA
:1008E000404502D14FF003082BE0DFF8E48040459B
:1008F00002D14FF0040824E0DFF8D880404502D14F
:100900004FF005081DE0DFF8D080404502D14FF0E0
:10091000060816E0DFF8C480404502D14FF0070812
:100920000FE0DFF8BC80404502D14FF0080808E036
:10093000DFF8B080404502D14FF0090801E04FF0E8
:100940000A0808FA07F848EA0608CCF80888DAF82E
:1009500000605746D1F804C09E435FEACC2C00D516
:100960001E433E60DBF800605F46D1F804C09E4342
:100970005FEA8C2C00D51E433E60DEF800607746AF
:10098000D1F804C09E435FEA8C3C00D51E433E6014
:10099000084F083F3E68D1F804C09E435FEACC3C54
:1009A00000D51E433E60521C102AFFF411AFBDE873
:1009B000F88F0000083C01404438024000300140FC
:1009C000000002400004024000080240000C024007
:1009D000001002400014024000180240001C0240B7
:1009E0000020024000240240014880687047000057
:1009F0000C00002002488168027811448160704731
:100A00000C0000200B4810B5016841F40071016032
:100A1000016841F480610160016841F48071016006
:100A2000032000F061F80F2000F006F800F024F831
:100A3000002010BD003C024070B50D4D04464FF43F
:100A40007A712878B1FBF0F00A490968B1FBF0F03F
:100A500000F016FB48B9102C07D200222146501E88
:100A600000F022F800206C6070BD012070BD000015
:100A70000C000020180000200A4808B5016841F465
:100A800080410160006800F4804000900548001F2C
:100A9000016841F080510160006800F080500090D2
:100AA00008BD000044380240F0B40E4B1B680C46F1
:100AB000C3F30223C3F10705042D00D90425191D32
:100AC000072901D2002300E0DB1E012606FA05F10A
:100AD000491E214099409E40761E16403143F0BC8D
:100AE00000F099BB0CED00E0064900F00702086831
:100AF0004FF6FF03184040EA0220034A1043086003
:100B0000704700000CED00E00000FA052DE9F84305
:100B10001748016841F0805101600068154F00F0EE
:100B20008050012600903E64FFF75EFF05464FF4BB
:100B30007A78114C05E000BFFFF756FF401B404597
:100B40000DD86068C003F7D57E64FFF74DFF0546FA
:100B5000464607E0FFF748FF401BB04202D903209A
:100B6000BDE8F88360688003F4D50020F8E7000052
:100B70004038024000000E42007000402DE9F0476E
:100B80000E46050065D0DFF81481D8F80000F7B2F2
:100B900000F00F00B04207D288F80070D8F80000CB
:100BA00000F00F00B04254D128683D4C810712D5A7
:100BB000400703D5206840F4E05020602878000703
:100BC00003D5206840F4604020602068A96820F0C8
:100BD000F000084320602878C0072DD030496868AD
:100BE0000839012812D0022813D0032811D009682F
:100BF000890700292DDA216821F0030101432160D2
:100C0000FFF7F2FE814641F2883A0EE00968890357
:100C1000EFE709688901ECE7FFF7E6FEA0EB0901C1
:100C2000514502D90320BDE8F0872068696800F0CB
:100C30000C00B0EB810FEFD1D8F80010404601F066
:100C40000F01B14207D90770006800F00F00B042F1
:100C500001D00120E7E72878400705D52068E9683A
:100C600020F4E050084320602878000706D520686B
:100C7000296920F4604040EAC100206000F018F8C3
:100C80002168084AC1F30311515CC8400649086055
:100C900006480068FFF7D0FE0020C4E7003C024091
:100CA00008380240921300081800002010000020AD
:100CB000154810B5006810F00C02144813D0144900
:100CC000042A0FD0082A0ED10F4C241F2268236853
:100CD00002F03F025B0207D52068C0F38810A0FB3A
:100CE000010106E0084610BD2168C1F38811A1FB8F
:100CF00000010023FFF7CAFA2168C1F30141491C32
:100D00004900B0FBF1F010BD083802400024F400A7
:100D100040787D012DE9F84F04006ED02078DFF88F
:100D20004C93C007A9F104054AD009F104000168F9
:100D3000C1F38101012908D00068C0F381000228B5
:100D40000AD1D9F80000400206D52868800337D5BB
:100D500060680028E1D033E06068B0F5803F10D0D3
:100D6000B0F5A02F286810D020F4803028602868C3
:100D700020F4802028606068A8B1FFF735FE0646A1
:100D80000DE0286840F48030F4E740F480202860CB
:100D9000F7E700BFFFF728FE801B642873D8286898
:100DA0008003F7D50CE0FFF71FFE064605E000BF05
:100DB000FFF71AFE801B6428F0D828688003F7D458
:100DC0002078DFF8AC8280074FF0000A3ED5A748B4
:100DD000001D016811F00C0F08D00068C0F38100FD
:100DE00002280BD1D9F80000400207D428688007F8
:100DF00016D5E068012800D112E033E1E068B8B10F
:100E00000120C8F80000FFF7EFFD064605E000BF2F
:100E1000FFF7EAFD801B0228C0D828688007F7D5B5
:100E20002868216920F0F80040EAC10028600DE040
:100E3000C8F800A0FFF7D8FD064604E0FFF7D4FD90
:100E4000801B02281FD828688007F7D42078000765
:100E500022D5864F87486169703771B101210160E1
:100E6000FFF7C2FD064604E0FFF7BEFD801B022827
:100E700009D838688007F7D50EE0C0F800A0FFF762
:100E8000B3FD064605E082E0FFF7AEFD801B0228B9
:100E90007DD838688007F7D42078400768D5DFF818
:100EA000CCB100270BF13C0BDBF80000C0000BD4E9
:100EB000DBF8001041F08051CBF80010DBF80000A7
:100EC000012700F0805000906B4E3068C00510D4B0
:100ED000306840F480703060FFF786FD009005E0D8
:100EE000FFF782FD0099401A022850D83068C005EB
:100EF000F6D55E4EA0686C3601280FD00528306804
:100F000010D020F001003060306820F00400306024
:100F1000A068B8B1FFF768FD00900FE0306840F0BE
:100F20000100F4E740F004003060F7E7FFF75CFDF4
:100F30000099411A41F28830814266D830688007B2
:100F4000F4D50EE0FFF750FD009007E0FFF74CFDF1
:100F50000099411A41F28830814256D830688007A2
:100F6000F4D42FB1DBF8001021F08051CBF8001041
:100F7000A069C8B33D49091D0968C1F3810102296F
:100F80004AD00228504607D0C8F8600000E03CE094
:100F9000FFF72AFD04463BE04746C8F86000FFF72C
:100FA00023FD064605E000BFFFF71EFD801B02285B
:100FB0002BD828688001F7D4D4E907010843A16A37
:100FC0002E4A490802EB0141626A41EA8211084354
:100FD00094F82C1040EA0161C9F80010012038662D
:100FE000FFF702FD044606E03EE000BFFFF7FCFC11
:100FF000001B022809D828688001F7D534E000BF1B
:10100000FFF7F2FC001B022802D90320BDE8F88F8D
:1010100028688001F4D427E00128F7D0D9F800002F
:10102000E26900F4800191421CD1226A00F03F0184
:10103000914217D147F6C071626A0140B1EB821F3D
:1010400010D1A26A4FF0FF3300F4403103EB52029B
:10105000B1EB024F06D194F82C1000F07060B0EBA9
:10106000016F01D00120D1E70020CFE70438024012
:1010700000004742800E4742007000400000FFFF22
:1010800010B5401EB0F1807F01D3012010BD4FF09C
:10109000E02460610F21601700F0BDF80020A0611E
:1010A00007202061002010BDFEE700000C4810B5AD
:1010B0000A4901601021416000218160C160016125
:1010C0004161017641768176C17601774177FFF7FC
:1010D0009CFA002801D072B6FEE710BD0064004003
:1010E0003400002010B586B014216846FFF745F99A
:1010F00016480024016841F004010160016801F014
:1011000004010591016841F080010160016801F06E
:1011100080010591016841F00101016000686946A4
:1011200000F0010005904FF40050CDE9000408489C
:101130000294FFF73FFB0920CDE90004694605480A
:101140000294FFF737FB06B010BD000030380240B4
:1011500000080240001C0240FEE7FEE770477047AF
:10116000FFF748BC30B593B030216846FFF705F96A
:1011700014210CA8FFF701F920480025016841F06F
:1011800080510160006800F0805011901C48016897
:1011900041F4404101600068022400F44040119095
:1011A0000120039010200490009406940820CDE9BB
:1011B0000750B420CDE9090404200B906846FFF7DE
:1011C000A9FD08B172B6FEE7FFF7A0FC08B172B640
:1011D000FEE70CA90F2081E831004FF4A0500F90DA
:1011E0004FF48050109005210CA8FFF7C7FC002891
:1011F00001D072B6FEE713B030BD000040380240A7
:10120000007000400248016841F4700101607047BD
:1012100088ED00E0FEE70907090E002804DB00F175
:10122000E02080F80014704700F00F0000F1E0208B
:1012300080F8141D7047000010B500231A4603E023
:10124000845C521C2344D2B28A42F9D3024880788B
:101250001844C0B210BD00001C000020FFF7D2FBF4
:10126000FFF780FFFFF73EFFFFF720FF094C40F636
:10127000B835012000F010F8606008B10068A06087
:101280006420FFF785FA00F047F820702846FFF742
:101290007FFAEEE70000002038B500281BD01B497C
:1012A0006B46086000208860C86002200861184909
:1012B00031200A46087015491648FFF7C4F848B9A6
:1012C000FFF792FB00F1640406E000BFFFF78CFB20
:1012D000A04201D9002038BD0D4B0C4A083318320A
:1012E00000210C48FFF717F90028EFD10848083013
:1012F000B0F80310427949BA0904807941EA022121
:101300000143034808384160001D38BD5C000020DF
:1013100024000020340000202DE9F04740F6B835C5
:10132000FFF762FBDFF85880DFF8589006464FF071
:10133000000A08F1100798F800104046012916D15C
:1013400080F800A0D9F81040B9F80010A8F80210F1
:10135000601EC1B20A481030FFF76EFF57FA84F1E1
:1013600011F8011C884202D17878BDE8F087FFF7B8
:101370003BFB002DDFD0801BA842DCD90020F4E726
:101380001C000020740000204FF04070E1EE100AB5
:10139000704700000000000000000102030406077F
:1013A00008090000C41300080000002034000000F9
:1013B000E8010008F813000834000020BC06000013
:1013C000040200080000000000000000000000000F
:1013D0000100000010000000000000000024F400E4
:1013E00000000000000000000000000000000000FD
:0813F0000000000000000000F5
:04000005080001AD41
:00000001FF
