:020000040800F2
:10000000E84600200D030008071700082316000823
:100010000517000867050008C9180008000000005F
:100020000000000000000000000000004D02000879
:100030006905000800000000A90200081117000867
:1000400027030008270300082703000827030008E8
:1000500027030008270300082703000827030008D8
:1000600027030008270300082703000827030008C8
:1000700027030008270300082703000827030008B8
:1000800027030008270300082703000827030008A8
:100090002703000827030008270300082703000898
:1000A0002703000827030008270300082703000888
:1000B000ED1700082703000827030008270300089E
:1000C0002703000827030008270300082703000868
:1000D0002703000827030008270300082703000858
:1000E0002703000827030008270300082703000848
:1000F0002703000827030008270300082703000838
:100100002703000827030008270300082703000827
:100110002703000827030008270300082703000817
:100120002703000827030008270300082703000807
:1001300027030008270300082703000827030008F7
:1001400027030008270300082703000827030008E7
:1001500027030008270300082703000827030008D7
:1001600027030008270300082703000827030008C7
:1001700027030008270300082703000800000000E9
:1001800027030008270300082703000827030008A7
:100190002703000827030008270300082703000897
:1001A00027030008270300082703000800F002F8CF
:1001B00000F03CF80AA090E8000C82448344AAF1C5
:1001C0000107DA4501D100F031F8AFF2090EBAE8C3
:1001D0000F0013F0010F18BFFB1A43F0010318477B
:1001E0004024000060240000103A24BF78C878C181
:1001F000FAD8520724BF30C830C144BF04680C602D
:10020000704700000023002400250026103A28BF74
:1002100078C1FBD8520728BF30C148BF0B60704778
:100220001FB502F0D7F91FBD10B510BD00F061F980
:100230001146FFF7F5FF01F0A7FB00F07FF903B4CB
:10024000FFF7F2FF03BC00F087F900002C4B1968A0
:100250000868B0E8F04F80F30988BFF36F8F4FF064
:10026000000080F311887047000000000848006813
:10027000006880F308884FF0000080F3148862B6AD
:1002800061B6BFF34F8FBFF36F8F00DF00BF00BFBA
:1002900008ED00E0DFF80C00016841F47001016036
:1002A000704700BF88ED00E0EFF30980BFF36F8F68
:1002B000134B1A681EF0100F08BF20ED108A20E9BA
:1002C000F04F106009B44FF0500080F31188BFF375
:1002D0004F8FBFF36F8F01F07BFF4FF0000080F373
:1002E000118809BC19680868B0E8F04F1EF0100FBB
:1002F00008BFB0EC108A80F30988BFF36F8F704796
:1003000018000020EFF3058070470000094880477F
:1003100009480047FEE7FEE7FEE7FEE7FEE7FEE7E7
:10032000FEE7FEE7FEE7FEE704480549054A064BFF
:1003300070470000DD170008AD010008E84000200C
:10034000E8460020E8420020E842002053EA020C80
:1003500000F069802DE9F04B4FF00006002B1FBF25
:10036000B3FA83F503FA05F424FA05F65E4012BFEA
:100370001643B2FA82F502FA05F4C5F120051EBF54
:1003800022FA05FC44EA0C04203556EA044C4FEAF4
:10039000144418BF641C4FF000084FF0000990424D
:1003A00071EB030C39D3002919BFB1FA81F701FAB7
:1003B00007F6B0FA80F700FA07F6C7F120071EBF6C
:1003C00020FA07FC46EA0C062037B6FBF4FCA7EB44
:1003D0000507103F07F01F0BCBF120060CFA0BFBB3
:1003E0002CFA06F644BFB3460026202FA4BF5E4673
:1003F0004FF0000B5BEA060C08BF4FF0010B19EB46
:100400000B09ABFB027C48EB0608C01B06FB02CCC9
:100410000BFB03CC71EB0C01C1E70B4602464146D6
:100420004846BDE8F08B13B54FF000004FF00001D7
:10043000AFF30080BDE81C40704710B5203AC0F013
:100440000B80B1E81850203AA0E81850B1E81850D5
:10045000A0E81850BFF4F5AF5FEA027C24BFB1E812
:100460001850A0E8185044BF18C918C0BDE8104083
:100470005FEA827C24BF51F8043B40F8043B08BF8C
:100480007047D20728BF31F8023B48BF11F8012B53
:1004900028BF20F8023B48BF00F8012B70474FF0FF
:1004A000000200B5134694469646203922BFA0E8C4
:1004B0000C50A0E80C50B1F12001BFF4F7AF0907D0
:1004C00028BFA0E80C5048BF0CC05DF804EB8900C1
:1004D00028BF40F8042B08BF704748BF20F8022B04
:1004E00011F0804F18BF00F8012B7047704770471C
:1004F0007047754600F02CF8AE4605006946534635
:1005000020F00700854618B020B5FFF70DFFBDE8C5
:1005100020404FF000064FF000074FF000084FF06A
:10052000000B21F00701AC46ACE8C009ACE8C009FB
:10053000ACE8C009ACE8C0098D46704710B5044668
:10054000AFF300802046BDE81040FFF778BE000002
:10055000004870478840002001491820ABBEFEE7E4
:10056000260002007047FEE7704790F82020012A1D
:1005700007D0022A05D0416A41F48021416201205E
:100580007047006842690A43426100207047F0B535
:1005900090F820500468A468012D05D0022D03D0E6
:1005A000416A41F4802157E014F0406F01D1E50029
:1005B0004FD5C4F301640125A5401D608D684FF43B
:1005C000C0739DB1CE6835434E6845EAC6050668DE
:1005D00003EB0417F5514FF4C275076805EB0415DA
:1005E0000E697E51097D012905D009E00E88CD688C
:1005F00045EA4655EBE701684E5946F480764E5180
:100600001179D579567941EA056195792D0445EA44
:10061000062529434FF4C676056806EB0416A95152
:100620001178D57841EA0561957852782D0445EA2C
:10063000022211434FF4C475026805EB04155151B1
:10064000006803EB0411425842F0010242500020BE
:10065000F0BD416A41F4001141620120F0BD00008B
:1006600010B590F82020012A07D0022A05D0416A4F
:1006700041F480214162012010BD3B48D0F80022A6
:1006800042F00102C0F80022D0F8002222F47C528D
:10069000C0F80022D0F800224B6A42EA0322C0F8D8
:1006A00000220A7D02F01F0301229A40D0F81C327A
:1006B0009343C0F81C32CB69B3B9D0F80C329343E2
:1006C000C0F80C328C894B6864F31F434C6900EB13
:1006D000C404C4F840320C890B6864F31F434C69AE
:1006E00000EBC404C4F84432CB69012B16D1D0F816
:1006F0000C321343C0F80C320C884B6864F31F4370
:100700004C6900EBC404C4F840320C89CB6864F334
:100710001F434C6900EBC404C4F844328B69002BBE
:10072000D0F804320ED01343C0F804320B69002B0A
:10073000D0F8143208D01343C0F81432096A0129E2
:1007400004D008E09343EFE79343F5E7D0F81C1299
:100750001143C0F81C12D0F8001221F00101C0F8BA
:100760000012002010BD00000064004070B590F839
:100770002040012C05D0022C03D0416A41F4802195
:1007800028E0046809B32469A40720D04FF4D87482
:10079000056804EB01142D5915F0040595600568F2
:1007A0002D591AD0ED08556005682C5904F0020443
:1007B000D4604FF4DA74056804EB01142E5906F086
:1007C0000F06082E0CD308250DE0E468DCE7416A2B
:1007D00041F400114162012070BD6D0D1560E3E729
:1007E0002D5905F00F05156105682D59C5F307252D
:1007F000956105682C59240C54614FF4DC7204682F
:1008000002EB0112A4581C700468A458240A5C70FE
:100810000468A458240C9C700468A258120EDA7064
:100820004FF4DE72046802EB0112A4581C710468D4
:10083000A458240A5C710468A458240C9C710468B0
:10084000A258120EDA71006829B1016941F0200145
:100850000161002070BDC16841F02001C160F8E76E
:1008600070B5040003D094F8200010B104E001201A
:1008700070BD204600F082F82068016841F0010157
:10088000016000F001FA0546052604E000F0FCF9DD
:10089000401B0A2811D820684068C007F6D020689D
:1008A000016821F00201016000F0EEF905460BE05D
:1008B00000F0EAF9401B0A2806D9606A40F40030CB
:1008C000606284F82060D2E7206840688007EFD437
:1008D000207E0128206801683DD021F08001016060
:1008E000607E01282068016838D021F04001016055
:1008F000A07E01282068016833D021F0200101602A
:10090000E07E0128206801682ED041F010010160CE
:10091000207F01282068016829D021F008010160AA
:10092000607F01282068016824D021F00401016063
:10093000D4E902010843D4E9041211430843616871
:10094000491E08432168C86100206062012084F8C4
:100950002000002070BD41F08001C0E741F040015F
:10096000C5E741F02001CAE721F01001CFE741F0CF
:100970000801D4E741F00401D9E7000010B586B0C2
:10098000044614216846FFF78AFD1449206888420E
:1009900021D113480021026842F000720260006811
:1009A00000F0007005900E481038026842F0010215
:1009B0000260006800F0010005904FF4C050009004
:1009C0000220CDE90101032003900920049069462B
:1009D000044800F039F806B010BD00000064004083
:1009E000403802400000024070B5044690F82000F4
:1009F000012804D0606A40F40020606218E0022000
:100A000084F820002068016821F00101016000F0F5
:100A10003BF905460EE000BF00F036F9401B0A28FE
:100A200008D9606A40F400306062052084F8200034
:100A3000012070BD20684068C007EDD1606270BDC4
:100A400080B200F081BF00002DE9F84FDFF8F8A177
:100A50000022012403254FF00F090AF1040BAAF12B
:100A6000040E00BF0B6804FA02F63340B34270D1A3
:100A70000F7907F00307012F01D0022F16D18768E5
:100A80004FEA420805FA08FC27EA0C07D1F80CC027
:100A90000CFA08FC4CEA070CC0F808C04768B743DA
:100AA0000E79C6F3001696403E4346600E79F64333
:100AB000B6070AD0C7684FEA420C05FA0CF6B743EE
:100AC0008E6806FA0CF63E43C6600E7906F0030601
:100AD000022E10D1D60800EB8608D8F82060570700
:100AE0004FEAD76C09FA0CF7BE430F6907FA0CF707
:100AF0003743C8F8207006684FEA420C05FA0CF735
:100B0000BE430F7907F0030707FA0CF73743076076
:100B10004E6816F4403F1CD04C4E376847F480476F
:100B20003760366822F0030706F480460096484E88
:100B300007EB060CDCF8086897073F0F09FA07F87F
:100B400026EA0806DFF80C81404503D14FF0000883
:100B500041E072E0DFF80081404502D14FF001082A
:100B600039E0DFF8F880404502D14FF0020832E06A
:100B7000DFF8EC80404502D14FF003082BE0DFF8AE
:100B8000E480404502D14FF0040824E0DFF8D8802B
:100B9000404502D14FF005081DE0DFF8D080404508
:100BA00002D14FF0060816E0DFF8C480404502D1BC
:100BB0004FF007080FE0DFF8BC80404502D14FF04E
:100BC000080808E0DFF8B080404502D14FF009087E
:100BD00001E04FF00A0808FA07F848EA0608CCF8DE
:100BE0000888DAF800605746D1F804C09E435FEAEF
:100BF000CC2C00D51E433E60DBF800605F46D1F888
:100C000004C09E435FEA8C2C00D51E433E60DEF894
:100C100000607746D1F804C09E435FEA8C3C00D563
:100C20001E433E60084F083F3E68D1F804C09E4313
:100C30005FEACC3C00D51E433E60521C102AFFF4F4
:100C400011AFBDE8F88F0000083C01404438024075
:100C50000030014000000240000402400008024051
:100C6000000C024000100240001402400018024034
:100C7000001C024000200240002402400AB18161B1
:100C800070470904FBE700000148806870470000D6
:100C90000800002002488168027811448160704792
:100CA000080000200B4810B5016841F40071016094
:100CB000016841F480610160016841F48071016064
:100CC000032000F09FF80F2000F006F800F050F825
:100CD000002010BD003C024030B50546204887B0DA
:100CE0000024016841F001010160006806A900F0DC
:100CF0000100009001A800F069F90498B0B100F07B
:100D000085F9400017494FF08042B0FBF1F11648D9
:100D1000491E026040F2E732C0E90324C0E9011431
:100D2000846100F06DFB040003D015E000F06EF963
:100D3000E8E70D4800F092FB04000DD11C2000F004
:100D400033F8102D07D2002229461C2000F03AF873
:100D50000648056000E0012407B0204630BD0000D1
:100D60004038024040420F001C0300200C000020CD
:100D70000C4882B0016841F480410160006800F4D1
:100D8000804000900748001F016841F080510160D9
:100D90000068002200F0805000900F21901E02B0E9
:100DA00000F010B844380240002809DB00F01F02B0
:100DB000012191404009800000F1E020C0F80011BD
:100DC00070470000F0B40E4B1B680C46C3F30223BF
:100DD000C3F10705042D00D90425191D072901D2E7
:100DE000002300E0DB1E012606FA05F1491E214022
:100DF00099409E40761E16403143F0BC00F065BD20
:100E00000CED00E0064900F0070208684FF6FF030A
:100E1000184040EA0220034A10430860704700006F
:100E20000CED00E00000FA052DE9F84317480168D1
:100E300041F0805101600068154F00F0805001269C
:100E400000903E64FFF720FF05464FF47A78114C7E
:100E500005E000BFFFF718FF401B40450DD8606854
:100E6000C003F7D57E64FFF70FFF0546464607E04F
:100E7000FFF70AFF401BB04202D90320BDE8F88308
:100E800060688003F4D50020F8E700004038024095
:100E900000000E42007000402DE9F0470E460500AC
:100EA00065D0DFF81481D8F80000F7B200F00F0029
:100EB000B04207D288F80070D8F8000000F00F00A8
:100EC000B04254D128683D4C810712D5400703D564
:100ED000206840F4E05020602878000703D520689F
:100EE00040F4604020602068A96820F0F0000843CA
:100EF00020602878C0072DD030496868083901285B
:100F000012D0022813D0032811D0096889070029BC
:100F10002DDA216821F0030101432160FFF7B4FEBF
:100F2000814641F2883A0EE009688903EFE70968D3
:100F30008901ECE7FFF7A8FEA0EB0901514502D9B2
:100F40000320BDE8F0872068696800F00C00B0EB72
:100F5000810FEFD1D8F80010404601F00F01B142E7
:100F600007D90770006800F00F00B04201D00120DF
:100F7000E7E72878400705D52068E96820F4E050C5
:100F8000084320602878000706D52068296920F4E6
:100F9000604040EAC100206000F048F82168084A3B
:100FA000C1F30311515CC840064908600648006857
:100FB000FFF792FE0020C4E7003C024008380240E0
:100FC000FC250008140000200C0000200F22026005
:100FD0000C4A136803F003034360136803F0F00343
:100FE0008360136803F4E053C36012684FF4E05366
:100FF00003EAD20202610448006800F00F000860B2
:101000007047000008380240003C0240044805498F
:1010100000680968044AC1F38221515CC8407047E6
:1010200014000020083802400C260008154810B5AE
:10103000006810F00C02144813D01449042A0FD091
:10104000082A0ED10F4C241F2268236802F03F02A9
:101050005B0207D52068C0F38810A0FB010106E001
:10106000084610BD2168C1F38811A1FB00010023CF
:10107000FFF76CF92168C1F30141491C4900B0FB3D
:10108000F1F010BD083802400024F40040787D01E2
:101090002DE9F84F04006ED02078DFF84C93C0079C
:1010A000A9F104054AD009F104000168C1F38101E6
:1010B000012908D00068C0F3810002280AD1D9F8BC
:1010C0000000400206D52868800337D560680028F4
:1010D000E1D033E06068B0F5803F10D0B0F5A02FCC
:1010E000286810D020F480302860286820F4802000
:1010F00028606068A8B1FFF7C7FD06460DE02868C4
:1011000040F48030F4E740F480202860F7E700BF27
:10111000FFF7BAFD801B642873D828688003F7D5D1
:101120000CE0FFF7B1FD064605E000BFFFF7ACFDA0
:10113000801B6428F0D828688003F7D42078DFF873
:10114000AC8280074FF0000A3ED5A748001D016819
:1011500011F00C0F08D00068C0F3810002280BD1F9
:10116000D9F80000400207D42868800716D5E06847
:10117000012800D112E033E1E068B8B10120C8F8DD
:101180000000FFF781FD064605E000BFFFF77CFD8C
:10119000801B0228C0D828688007F7D528682169F5
:1011A00020F0F80040EAC10028600DE0C8F800A077
:1011B000FFF76AFD064604E0FFF766FD801B022884
:1011C0001FD828688007F7D42078000722D5864FDB
:1011D00087486169703771B101210160FFF754FDE3
:1011E000064604E0FFF750FD801B022809D8386846
:1011F0008007F7D50EE0C0F800A0FFF745FD0646D2
:1012000005E082E0FFF740FD801B02287DD83868AA
:101210008007F7D42078400768D5DFF8CCB10027E5
:101220000BF13C0BDBF80000C0000BD4DBF8001026
:1012300041F08051CBF80010DBF80000012700F0EE
:10124000805000906B4E3068C00510D4306840F478
:1012500080703060FFF718FD009005E0FFF714FD87
:101260000099401A022850D83068C005F6D55E4E65
:10127000A0686C3601280FD00528306810D020F007
:1012800001003060306820F004003060A068B8B120
:10129000FFF7FAFC00900FE0306840F00100F4E73F
:1012A00040F004003060F7E7FFF7EEFC0099411AC8
:1012B00041F28830814266D830688007F4D50EE06C
:1012C000FFF7E2FC009007E0FFF7DEFC0099411A0F
:1012D00041F28830814256D830688007F4D42FB16B
:1012E000DBF8001021F08051CBF80010A069C8B3E2
:1012F0003D49091D0968C1F3810102294AD002282C
:10130000504607D0C8F8600000E03CE0FFF7BCFCA6
:1013100004463BE04746C8F86000FFF7B5FC0646C8
:1013200005E000BFFFF7B0FC801B02282BD828681F
:101330008001F7D4D4E907010843A16A2E4A49087D
:1013400002EB0141626A41EA8211084394F82C10D1
:1013500040EA0161C9F8001001203866FFF794FCEB
:10136000044606E03EE000BFFFF78EFC001B0228AB
:1013700009D828688001F7D534E000BFFFF784FC66
:10138000001B022802D90320BDE8F88F28688001DD
:10139000F4D427E00128F7D0D9F80000E26900F47E
:1013A000800191421CD1226A00F03F01914217D185
:1013B00047F6C071626A0140B1EB821F10D1A26A88
:1013C0004FF0FF3300F4403103EB5202B1EB024F18
:1013D00006D194F82C1000F07060B0EB016F01D0D2
:1013E0000120D1E70020CFE7043802400000474247
:1013F000800E4742007000400000FFFF70477047BA
:1014000010B5040003D094F83D0010B107E00120AE
:1014100010BD002084F83C00204600F01EF8022099
:1014200084F83D00211D206800F0E6F9012084F8D1
:10143000460084F83E0084F83F0084F8400084F8B9
:10144000410084F8420084F8430084F8440084F8A2
:10145000450084F83D00002010BD704790F83D1015
:10146000012901D001207047022180F83D10016858
:10147000CA6842F00102CA6000681149884214D06B
:10148000B0F1804F11D00F4988420ED00E498842EA
:101490000BD00E49884208D00D49884205D00D492D
:1014A000884202D00C49884204D1816801F00701CA
:1014B000062903D0016841F0010101600020704756
:1014C000000001400004004000080040000C004003
:1014D00000040140004001400018004070472DE921
:1014E000F04104460068C66805694FF00007A90787
:1014F00013D5B10711D5F91E0161012020772068AD
:1015000080698007204602D0FFF7E8FF04E000F082
:101510007EF8204600F07CF82777680716D570071C
:1015200014D521686FF0040008610220207720683C
:10153000806910F4407F204602D0FFF7CFFF04E01F
:1015400000F065F8204600F063F82777280715D5E6
:10155000300713D521686FF0080008610420207758
:101560002068C0698007204602D0FFF7B7FF04E07B
:1015700000F04DF8204600F04BF82777E80616D526
:10158000F00614D521686FF010000861082020775C
:101590002068C06910F4407F204602D0FFF79EFF0C
:1015A00004E000F034F8204600F032F82777E8072E
:1015B00008D0F00706D021686FF0010008612046CE
:1015C00000F027F8280608D5300606D521686FF008
:1015D000800008612046FFF711FF680608D57006F5
:1015E00006D521686FF040000861204600F018F829
:1015F000A8060AD5B00608D521686FF0200008615A
:101600002046BDE8F041FFF7FABEBDE8F081704723
:1016100070470068B0F1804F01D1FFF73BBB7047C6
:101620007047FEE70C4810B50A490160102141607F
:1016300000218160C160016141610176417681765E
:10164000C17601774177FFF70BF9002801D072B618
:10165000FEE710BD00640040A000002030B587B058
:1016600014216846FEF71BFF22480024016841F060
:1016700004010160016801F004010591016841F075
:1016800080010160016801F080010591016841F06D
:1016900001010160016801F001010591016841F05B
:1016A000020101600068144D00F002000590002264
:1016B00003212846FFF7E2FA4FF40050CDE9000479
:1016C00069460E480294FFF7BFF90920CDE90004EE
:1016D00069460B480294FFF7B7F9032000900120F8
:1016E000CDE90104694628460394FFF7ADF907B038
:1016F00030BD0000303802400004024000080240C3
:10170000001C0240FEE7FEE7012000F075F9FBE750
:1017100010B5502080F31188BFF34F8FBFF36F8F48
:1017200000F090FE18B104494FF08050086000208E
:1017300080F3118810BD000004ED00E030B593B0D7
:1017400030216846FEF7ABFE14210CA8FEF7A7FE79
:1017500020480025016841F080510160006800F0D8
:10176000805011901C48016841F4404101600068BC
:10177000022400F4404011900120039010200490B6
:10178000009406940820CDE90750B420CDE909045F
:1017900004200B906846FFF77BFC08B172B6FEE7A9
:1017A000FFF742FB08B172B6FEE70CA90F2081E8F3
:1017B00031004FF4A0500F904FF48050109005214D
:1017C0000CA8FFF769FB002801D072B6FEE713B042
:1017D00030BD0000403802400070004002480168FF
:1017E00041F470010160704788ED00E00148FFF7A7
:1017F00076BE00001C030020F0B50268274B284D80
:10180000284E294F294C4FF0804C984209D0604512
:1018100007D0A84205D0B04203D0B84201D0A042C0
:1018200004D122F0700E4A6842EA0E0298421BD0A0
:10183000604519D0A84217D0B04215D0B84213D095
:10184000A04211D01A4DA8420ED01A4DA8420BD07A
:10185000194DA84208D0194DA84205D0184DA842EC
:1018600002D0184DA84203D122F44075CA682A4319
:101870004D6922F080022A438D68C5620D68856239
:10188000984201D0A04201D109690163016841F089
:1018900004010160012141610260F0BD00000140CE
:1018A0000004004000080040000C0040000401401B
:1018B0000040014000440140004801400018004041
:1018C000001C004000200040FEE70907090E002828
:1018D00004DB00F1E02080F80014704700F00F00F6
:1018E00000F1E02080F8141D7047000010B50023BF
:1018F0001A4603E0845C521C2344D2B28A42F9D3D4
:10190000024800781844C0B210BD000088000020D2
:1019100000B58BB000200121CDE9060108910090AF
:101920000190029003900590049069460548FEF7E7
:1019300097FE0448FFF758F802210248FEF715FE0B
:101940000BB000BDA00000204FF47A71484300F0B6
:1019500001B8000070B54FF0E02400226569094924
:10196000A36909684843A1699942FCD002D2A3EB5C
:10197000010302E0A5EB010633441A440B46824200
:10198000F1D370BD8000002088B0FFF78BF9FFF71E
:10199000D5FEFFF763FEFFF745FEFFF7B9FF1C22F8
:1019A00010496846FEF749FD0021684600F030F80E
:1019B0000D4C606000F027F840F6B835012000F0CB
:1019C0007BFA022362882178012000F0B5FA0A2010
:1019D000FFF736F800F02AFC60702846FFF7B4FFE6
:1019E000ECE70000E0250008000000200146002090
:1019F000842900D0C81C704710B500B9012000F040
:101A000083FB002010BD10B500F0A4FB002010BD2A
:101A10007FB50D4604464169B0F9080081B1A1695E
:101A200071B1FFF7E3FFD4E905128DE80700D4E9AF
:101A300000102B46226900F0DAFC039004B070BD60
:101A4000FFF7D4FF03A9CDE90001208A2B4682B21B
:101A5000D4E9001000F09EFC012801D00020EDE741
:101A60000398EBE72DE9F041184C0F460546E66870
:101A70002068001D00F080FA38B9206890F82C101A
:101A800001208840216981432161681C07D137B159
:101A90002168BDE8F0410E48091D00F0B1BA206888
:101AA0003544B5424560216805D2A06BBDE8F041E0
:101AB000091D00F08DBA606B091D00F089FAA06A5B
:101AC000854200D2A562BDE8F08100001800002028
:101AD000400400202DE9F041054600F09DFA2E4C0F
:101AE000A068401CA06020682C4F10B1606940B312
:101AF0002DE02560A068012829D1002606EB86008C
:101B000007EB800000F056FA761C072EF6D3234828
:101B10008C3000F04FFA2148A03000F04BFA1F48FB
:101B2000B43000F047FA1D48C83000F043FA1B48B3
:101B3000DC3000F03FFA19488C3060631430A06349
:101B400005E02068E96AC06A884200D82560606ABA
:101B5000401C6062E96A01202269884010432061CC
:101B600001EB810007EB8000291D00F049FA00F02D
:101B700073FA606900280CD02068E96AC06A88425C
:101B800007D207494FF080500860BFF34F8FBFF373
:101B90006F8FBDE8F0810000180000206403002072
:101BA00004ED00E010B5044690F8510058B101284A
:101BB0000CD002280FD0502080F31188BFF34F8F34
:101BC000BFF36F8FFEE7206B00F05AFA2046BDE8A6
:101BD000104000F055BA10BD10484FF47051420744
:101BE00006D0C01D0D4920F00700411AC1F5705103
:101BF0000B4A00230144C2E900030839183A21F0D6
:101C0000070111604B600B600B1AC0E90013936071
:101C10004FF00040536050617047000054040020B2
:101C20006C000020144E154CA6F1C8074FF08058E8
:101C3000DFF84C9012E000BF00F0EEF9F068C568E4
:101C4000281D00F099F9A068401EA0606068401E41
:101C5000606000F001FA2846FFF7A4FF60680028E2
:101C6000EAD138680128F9D9C9F80080BFF34F8F4D
:101C7000BFF36F8FF2E700002C0400201800002053
:101C800004ED00E02DE9F0479A46DDE9098481463C
:101C90006FF00303206B03EB82021044089E20F0D8
:101CA0000707780707D0502080F31188BFF34F8FC4
:101CB000BFF36F8FFEE7002561B1002023180A5C97
:101CC00083F834200A5C12B1401C1028F6D384F843
:101CD000435001E084F83450072E00D30626E66214
:101CE000C4E91165201D00F070F904F1180000F03E
:101CF0006CF92461C6F107006462A061E56484F8B0
:101D0000505052464946384600F0C0F82060B8F1BD
:101D1000000F01D0C8F80040BDE8F08730B5114988
:101D200000E011460A688242FBD34B685C1884428B
:101D300003D1406818444860084643681C18944220
:101D400009D1084C183C2468A24209D052681A44B0
:101D500042600A6812680260814200D0086030BDAB
:101D60000460F9E76C0000200648416B096829B15E
:101D7000416BC968C9684968816270474FF0FF319B
:101D8000FAE700001800002008484068401C4FF0A7
:101D9000500080F3118804D0BFF34F8FBFF36F8FD3
:101DA000FEE7BFF34F8FBFF36F8FFEE77400002095
:101DB0002DE9F0410546002700F002FA324E306866
:101DC00008B9FFF709FF706905424ED1C5B3083560
:101DD00068070ED005F00700C0F108000544680749
:101DE00007D0502080F31188BFF34F8FBFF36F8F60
:101DF000FEE72DB37068854237D823481830014676
:101E00000C6801E020460C466168A94202D22168B4
:101E10000029F7D131688C4227D00768216801601A
:101E200060680837411B10290FD96019420708D094
:101E3000502080F31188BFF34F8FBFF36F8FFEE701
:101E400013E041606560FFF769FF61687068401AE0
:101E50007060B268904200D2B060706901430020A7
:101E6000C4E90001F068401CF06000F051FB780705
:101E700007D0502080F31188BFF34F8FBFF36F8FCF
:101E8000FEE73846BDE8F0815400002010B5031F7E
:101E90004FF080741C601B1F21F001011960191F95
:101EA000044B0B6014390A60091F6FF002024438BA
:101EB0000A6010BD891D000838B500281BD01B49D9
:101EC0006B46086000208860C860022008611849DD
:101ED00031200A46087015491648FEF758FB48B9E4
:101EE000FEF7D2FE00F1640406E000BFFEF7CCFE70
:101EF000A04201D9002038BD0D4B0C4A08331832DE
:101F000000210C48FEF732FC0028EFD108480830C9
:101F1000B0F80310427949BA0904807941EA0221F4
:101F20000143034808384160001D38BD544000207B
:101F300090000020A000002038B50C4C206000204C
:101F4000A060E060052020610948F6240470C2F317
:101F5000032444EAC11141708270C37002466B468B
:101F600002490448FEF713FB38BD0000544000202E
:101F700090000020A0000020D0E9013201699A60A1
:101F8000D0E901235A604A68824201D182684A60DE
:101F9000002202610868401E08600868704700005F
:101FA000034B036003F15400086080201060704709
:101FB000C800002000F108014FF0FF32C0E9011213
:101FC000C16001610021016070470021016170471B
:101FD00030B50B685A1C02D000F1080202E0026919
:101FE00004E02246546825689D42FAD953684B6044
:101FF00099608A60516008610168491C016030BDC8
:1020000042684A6093688B60936859609160086188
:102010000168491C01607047502080F31188BFF3AC
:102020004F8FBFF36F8F0A494868401C48600128F2
:102030000CD10848006810F0FF0F07D0502080F343
:102040001188BFF34F8FBFF36F8FFEE7704700001B
:102050007400002004ED00E00849486828B1401EE3
:10206000486001D180F311887047502080F31188B7
:10207000BFF34F8FBFF36F8FFEE7000074000020A7
:1020800070B500282AD0164DA0F10804606869696F
:10209000084207D1502080F31188BFF34F8FBFF360
:1020A0006F8FFEE722683AB1502080F31188BFF3AA
:1020B0004F8FBFF36F8FFEE78843606000F080F8BA
:1020C00060686968084468602046FFF727FE286951
:1020D000401C2861BDE8704000F01ABA70BD0000D5
:1020E000540000204FF0E02000210161816105498A
:1020F0004FF47A720968B1FBF2F1491E4161072180
:10210000016170471400002010B5020014D00F4880
:10211000006B38B1502080F31188BFF34F8FBFF3AD
:102120006F8FFEE700F04CF800211046FFF79AFC95
:1021300000F0EEF9002807D105494FF08050086003
:10214000BFF34F8FBFF36F8F10BD0000180000204A
:1021500004ED00E010B586B00024039405AA04A99C
:1021600003A80494FFF71CFFDDE903010094CDE907
:10217000011000230EA11048059A00F038F90F490C
:102180000028C86211D0502080F31188BFF34F8F10
:10219000BFF36F8F4FF0FF30886201204861CC6041
:1021A00006B0BDE8104000F07BB806B010BD0000DE
:1021B00049444C4500000000251C00081800002080
:1021C0000248016B491C01637047000018000020A1
:1021D0001448016B11B10121C16170470021C16137
:1021E0000169B1FA81F1C1F11F0101EB81020E49D0
:1021F00051F822306BB101EB820101F108034A680A
:1022000052684A609A4201D152684A60D1680160BE
:102210007047502080F31188BFF34F8FBFF36F8F4B
:10222000FEE7000018000020640300202DE9F05FA5
:1022300040F6B835FEF728FDDFF860B0154FDFF83F
:10224000589006464FF0000A0BF110083878012824
:1022500017D187F800A0B9F80000D9F81040ABF802
:102260000000601EC1B20D481030FFF73FFB58FA66
:1022700084F111F8011C884203D198F80100BDE8EF
:10228000F09FFEF701FD002DE0D0801BA842DDD9B4
:102290000020F4E7840000206C400020880000202B
:1022A0001CB537480168374A914207D1502080F366
:1022B0001188BFF34F8FBFF36F8FFEE7006831497E
:1022C000491E884207D1502080F31188BFF34F8FF9
:1022D000BFF36F8FFEE72C4908780190FF2008704C
:1022E00008788DF800009DF800009DF8002000F0AF
:1022F000F000904207D0502080F31188BFF34F8F39
:10230000BFF36F8FFEE79DF80000204C00F05000F7
:1023100020700720A06005E09DF8002052008DF895
:102320000020401E9DF800201206F5D4A06003286E
:1023300007D0502080F31188BFF34F8FBFF36F8F0A
:10234000FEE74FF44070A060019808700C48203000
:10235000016841F470010160016841F07041016061
:10236000FFF7C0FE00206060FDF794FF0848016899
:1023700041F040410160FDF779FF00201CBD0000E5
:1023800000ED00E071C20F4100E400E074000020A5
:1023900034EF00E02DE9FF5F8346DDE90E879946C3
:1023A00016468A469000FFF703FD05001CD0542016
:1023B000FFF7FEFC040014D00020256384F85100D0
:1023C000CDE90240CDE900874B463246514658469A
:1023D000FFF758FC2046FFF77DFB012004B0BDE865
:1023E000F09F2846FFF74CFE4FF0FF30F6E7F0B5C0
:1023F00085B0DDE90B640A9DA6B1DCB154270097D6
:102400002663022684F85160002604AFCDE9024617
:10241000CDE90057FFF736FC2046FFF75BFB049839
:1024200005B0F0BD502080F31188BFF34F8FBFF38C
:102430006F8FFEE7502080F31188BFF34F8FBFF3FB
:102440006F8FFEE72DE9F0412F4C0026206B28B15D
:10245000A069401CA0613046BDE8F081E5686D1CB4
:10246000E56013D1606B006838B1502080F31188AB
:10247000BFF34F8FBFF36F8FFEE7606BA16B61639C
:10248000A063206A401C2062FFF76EFCA06ADFF8A0
:102490007C80854209D3606B0068A0B1606BC06826
:1024A000C7687868854211D2A0622068C06A00EBD4
:1024B000800158F82100012800D90126E069002890
:1024C000C9D00126C7E74FF0FF30EDE7381DFFF711
:1024D00053FDB86A18B107F11800FFF74DFDF96A0E
:1024E0000120226988401043206101EB810108EB43
:1024F0008100391DFFF784FDF86A2168C96A8842A6
:10250000C9D30126C7E7000018000020640300209B
:102510002DE9F0472C4D00242746286B38B1FFF7F2
:102520007BFD286B401E2863286B40B146E050209D
:1025300080F31188BFF34F8FBFF36F8FFEE7A96859
:10254000224E0120D1B3A6F1B40980463068E8B12B
:10255000F068C46804F11800FFF70EFD201DFFF7B6
:102560000BFDE06A2A6908FA00F11143296100EBCA
:10257000800109EB8100211DFFF742FDE06A296817
:10258000C96A8842E2D3C5F81C80DFE70CB1FFF7C7
:10259000EBFBAC6944B14646FFF754FF00B1EE6176
:1025A000641EF9D10020A861E86938B10849012703
:1025B00038070860BFF34F8FBFF36F8FFFF74CFDF5
:1025C0003846BDE8F08700001800002018040020FD
:1025D00004ED00E04FF04070E1EE100A704700009B
:1025E0001426000809170008000000000000000081
:1025F000800000000000000000000000000000005B
:1026000000000000010203040607080900000000A2
:102610000102030464656661756C745461736B0038
:102620004026000800000020A0000000E80100088B
:10263000E0260008A0000020484600000402000830
:102640000100640000000000010000001000000014
:10265000000000000024F400000000000000000062
:10266000000000000000000000000000000000006A
:10267000000000000000000000000000000000005A
:10268000000000000000000000000000000000004A
:10269000000000000000000000000000000000003A
:1026A000000000000000000000000000000000002A
:1026B0000000000000000000AAAAAAAA0000000072
:1026C000000000000000000000000000000000000A
:1026D00000000000000000000000000000000000FA
:04000005080001AD41
:00000001FF
